:100000000C947A010C94A2010C94A2010C94A2010C
:100010000C94A2010C94A2010C94A2010C94A201D4
:100020000C94A2010C94A2010C94A2010C94A201C4
:100030000C94A2010C94A2010C94A2010C94A201B4
:100040000C94E40F0C94A2010C9454100C942E10F8
:100050000C94A2010C94A2010C94A2010C94A20194
:100060000C9486100C94A2014E414E494E495459AD
:10007000494E46CDCCCC3D0AD7233C17B7D1387773
:10008000CC2B329595E6241FB14F0A000020410089
:1000900000C84200401C4620BCBE4CCA1B0E5AAED3
:1000A000C59D745B4248313735305D204552524F13
:1000B000523A20756E646566696E65642065727279
:1000C0006F72005B4248313735305D204552524FE8
:1000D000523A206F74686572206572726F72005BAD
:1000E0004248313735305D204552524F523A2072E6
:1000F00065636569766564204E41434B206F6E20D1
:100100007472616E736D6974206F662064617461CE
:10011000005B4248313735305D204552524F523AEC
:10012000207265636569766564204E41434B206F9C
:100130006E207472616E736D6974206F66206164E5
:100140006472657373005B4248313735305D20451A
:1001500052524F523A20746F6F206C6F6E67206658
:100160006F72207472616E736D6974206275666659
:100170006572005B4248313735305D204552524F41
:10018000523A20756E646566696E656420657272A8
:100190006F72005B4248313735305D204552524F17
:1001A000523A206F74686572206572726F72005BDC
:1001B0004248313735305D204552524F523A207215
:1001C00065636569766564204E41434B206F6E2000
:1001D0007472616E736D6974206F662064617461FE
:1001E000005B4248313735305D204552524F523A1C
:1001F000207265636569766564204E41434B206FCC
:100200006E207472616E736D6974206F6620616414
:100210006472657373005B4248313735305D204549
:1002200052524F523A20746F6F206C6F6E67206687
:100230006F72207472616E736D6974206275666688
:100240006572005B4248313735305D204465766920
:100250006365206973206E6F7420636F6E666967D3
:1002600075726564210000000000240027002A0048
:1002700000000000250028002B00000000080002FC
:10028000010000030407000000000000000000005F
:100290000000230026002900CDCCCC3D0AD7233C0A
:1002A00017B7D13877CC2B329595E6241FB14F0A7A
:1002B000000020410000C84200401C4620BCBE4C4B
:1002C000CA1B0E5AAEC59D7404040404040404043D
:1002D00002020202020203030303030301020408F1
:1002E00010204080010204081020010204081020A0
:1002F000A511E21811241FBECFEFD8E0DEBFCDBF9D
:1003000011E0A0E0B1E0E8EFFEE302C005900D923D
:10031000AE3DB107D9F723E0AEEDB1E001C01D92CB
:10032000A139B207E1F711E0C9E7D1E004C0219794
:10033000FE010E94481CC837D107C9F70E94281245
:100340000C946F1F0C940000CF93DF93EC0160912D
:100350004D0370914E036115710579F0FB018081A9
:10036000918190934E0380934D03E881F98102803F
:10037000F381E02DCE010995EACFDF91CF91089569
:10038000FF920F931F93CF93DF938C01F12C609119
:100390005F037091600380916103F816C8F484E0F4
:1003A000F89EE0011124C60FD71F6A817B81611579
:1003B000710541F0D801ED91FC910280F381E02DAF
:1003C000C80109951B821A8218821982F394DFCF23
:1003D000109261038FEF80936303B3E06F347B0768
:1003E00089F0D801ED91FC910280F381E02DC801E4
:1003F00009958FE493E09093600380935F0384E01A
:1004000080936203DF91CF911F910F91FF90089528
:1004100080E480937C0080917A00806480937A00ED
:1004200080917A0086FDFCCF8091780090917900D0
:100430000895CF92DF92EF92FF92CF93DF93B09126
:100440007F03A0E08111AB2F8091800390E0880FA3
:10045000991FAC0142575D4FC0908503D090860331
:10046000E0908703F090880330E020E0FA01C59126
:10047000D491E881B90190E080E0EB23EA130AC04F
:100480002F5F3F4F6C157D058E059F0578F36FEF4D
:100490007FEFCB01DF91CF91FF90EF90DF90CF9076
:1004A000089590E0FC01E658FD4F2491FC01E452D0
:1004B000FD4F3491FC01E853FD4FE491EE23C9F068
:1004C000222339F0233001F1A8F4213019F1223030
:1004D00029F1F0E0EE0FFF1FE059FD4FA591B49117
:1004E0008FB7F894EC91611126C030953E233C9370
:1004F0008FBF08952730A9F02830C9F0243049F77C
:10050000809180008F7D03C0809180008F778093E1
:100510008000DFCF84B58F7784BDDBCF84B58F7D3E
:10052000FBCF8091B0008F778093B000D2CF8091C5
:10053000B0008F7DF9CF3E2BDACFCF93DF9390E0E1
:10054000FC01E452FD4F249188539D4FFC0184919E
:100550008823D1F090E0880F991FFC01EA59FD4FE4
:10056000A591B491FC01E059FD4FC591D491623041
:1005700071F49FB7F8943C91822F809583238C93DC
:10058000E8812E2B28839FBFDF91CF9108958FB7ED
:10059000F894EC912E2B2C938FBFF6CF3FB7F894A5
:1005A00080919D0290919E02A0919F02B091A00225
:1005B00026B5A89B05C02F3F19F00196A11DB11DBE
:1005C0003FBFBA2FA92F982F8827BC01CD01620FFA
:1005D000711D811D911D42E0660F771F881F991FB5
:1005E0004A95D1F708958F929F92AF92BF92CF9282
:1005F000DF92EF92FF924B015C010E94CE026B01F1
:100600007C010E94CE026C197D098E099F09683E0B
:10061000734081059105A8F321E0821A9108A10891
:10062000B10888EEC80E83E0D81EE11CF11C8114CD
:100630009104A104B10429F7FF90EF90DF90CF90CF
:10064000BF90AF909F908F9008952FB7F8946091CE
:10065000990270919A0280919B0290919C022FBF07
:100660000895CF92DF92EF92FF920F931F93CF9353
:10067000DF93CDB7DEB7C054D1400FB6F894DEBFDC
:100680000FBECDBF0E94250300918103109182030C
:1006900020918303309184036B017C01C01AD10A3D
:1006A000E20AF30A97018601003D17402105310552
:1006B00090F480918903C05CDE4F0FB6F894DEBFE2
:1006C0000FBECDBFDF91CF911F910F91FF90EF90A3
:1006D000DF90CF900895609381037093820380939D
:1006E00083039093840310927C0310927B031092F7
:1006F0007A03109279031092780362E080917D036F
:100700000E949D0261E070E080E090E00E94F302B0
:1007100061E080917D030E949D0260E080917D03F5
:100720000E94510280917E038551823020F58BE238
:1007300091E10197F1F762E080917D030E949D02B3
:1007400080918A0390E08230910538F0880F991FDC
:10075000880F991F05970197F1F7F89480E00E94A0
:1007600019026F3F7F4F8F4F9F4F61F410928903A3
:10077000789480E0A0CF64E170E080E090E00E9497
:10078000F302D9CF81E00E9419026F3F7F4F8F4F54
:100790009F4F61F38E010F5F1F4F6E012FEBC21A47
:1007A0002EEFD20A780180E00E941902F7016083DF
:1007B00071838283938381E00E941902F70164832D
:1007C000758386839783F8E0EF0EF11CEC14FD042B
:1007D00051F7789430E020E0F801C080D180E280C9
:1007E000F3804481558166817781FFEFCF16DF0664
:1007F000EF06FF0631F04F3F8FEF58076807780785
:1008000019F410928903B5CFF90183E0F595E795C6
:100810008A95E1F7E858FC4F8081880FC416D50609
:10082000E606F70610F180832F5F3F4F085F1F4FEA
:100830002832310589F640917C032091780380911C
:100840007903280F3327331F80917A03280F311D36
:1008500080917B03820F932F911D992748171906CA
:1008600081F681E08093890326CF8160DCCF0895F3
:1008700008950895AF92BF92CF92DF92EF92FF92C8
:100880000F931F93CF93DF936C017B018B01040FB8
:10089000151FEB015E01AE18BF08C017D10759F054
:1008A0006991D601ED91FC910190F081E02DC60196
:1008B0000995892B79F7C501DF91CF911F910F9190
:1008C000FF90EF90DF90CF90BF90AF90089542E0FF
:1008D00050E06EE471E081EA92E00C943A04FC018D
:1008E000538D448D252F30E0842F90E0821B930B95
:1008F000541710F0CF96089501970895FC01918D3B
:10090000828D981761F0A28DAE0FBF2FB11D5D963D
:100910008C91928D9F5F9F73928F90E008958FEFDF
:100920009FEF08950F931F930E9425036093A902E0
:100930007093AA028093AB029093AC0281EA92E09A
:100940000E947E0497FF1DC00E9425030091A9020A
:100950001091AA022091AB023091AC02601B710B86
:10096000820B930B0091A5021091A6022091A70281
:100970003091A8026017710782079307F8F28FEF92
:100980009FEF1F910F910895FC01918D828D981713
:1009900031F0828DE80FF11D858D90E008958FEF85
:1009A0009FEF0895FC01918D228D892F90E0805C4E
:1009B0009F4F821B91098F739927089581EA92E0D6
:1009C0000E94D20421E0892B09F420E0822F0895AF
:1009D00080E090E0892B29F00E94DE0481110C94C4
:1009E00000000895FC01A48DA80FB92FB11DA35AD2
:1009F000BF4F2C91848D90E001968F739927848F3F
:100A0000A689B7892C93A089B1898C918370806461
:100A10008C93938D848D981306C00288F389E02D02
:100A200080818F7D80830895EF92FF920F931F93B3
:100A3000CF93DF93EC0181E0888F9B8D8C8D981391
:100A40001AC0E889F989808185FF15C09FB7F8949D
:100A5000EE89FF896083E889F989808183708064E9
:100A600080839FBF81E090E0DF91CF911F910F9134
:100A7000FF90EF900895F62E0B8D10E00F5F1F4F43
:100A80000F731127E02E8C8D8E110CC00FB607FC52
:100A9000FACFE889F989808185FFF5CFCE010E94E0
:100AA000F204F1CFEB8DEC0FFD2FF11DE35AFF4F58
:100AB000F0829FB7F8940B8FEA89FB89808180626E
:100AC000CFCF0F931F93CF93DF938C01D0E0C0E083
:100AD000F801EC0FFD1F6491662341F081EA92E07A
:100AE0000E941405892B11F02196F2CF0E94670411
:100AF0008C0F9D1FDF91CF911F910F910895CF9380
:100B0000DF93EC01888D8823B9F0AA89BB89E88935
:100B1000F9898C9185FD03C0808186FD0DC00FB6DB
:100B200007FCF7CF8C9185FFF2CF808185FFEDCF59
:100B3000CE010E94F204E9CFDF91CF910895DC014C
:100B4000ED91FC910190F081E02D099420911F021C
:100B5000260F3327331F21323105ECF42091700228
:100B6000FC0190E080E0243069F082E00895A091DB
:100B70001F022191AC0141505E4FA40FB52FB11D52
:100B80002C930196861798F380911F02680F60934B
:100B90001F0280E0089581E008951092700281E0C4
:100BA00080936F0210926A0261E082E10E9451021A
:100BB00061E083E10E945102E9EBF0E080818E7FE9
:100BC000808380818D7F808388E48093B80085E472
:100BD0008093BC000895CF93DF9391E09093FE0142
:100BE0008823B9F0C091B800D091BA008091BC00C0
:100BF0008A7B8093BC0060E082E10E94510260E049
:100C000083E10E9451020E94CD05D093BA00C093A7
:100C1000B800DF91CF9108950895E0917702809117
:100C20007602E81730F4F0E0E858FD4F808190E05C
:100C300008958FEF9FEF089590917702809176024B
:100C40002FEF3FEF981748F4E92FF0E0E858FD4FF9
:100C5000208130E09F5F90937702C90108958091D1
:100C6000760290917702891B990B0895CF92DF92BB
:100C7000EF92FF920F931F93CF93DF937C01CB01F1
:100C80008A0120914902222389F0EB016B01C40EF5
:100C9000D51ECC15DD0569F06991D701ED91FC9168
:100CA0000190F081E02DC7010995F3CF642F0E94D8
:100CB000A605C801DF91CF911F910F91FF90EF9092
:100CC000DF90CF900895CF93DF931F92CDB7DEB71B
:100CD0006983209149022223F9F0209146022032B3
:100CE00058F021E030E0FC013383228390E080E083
:100CF0000F90DF91CF91089580914702E82FF0E0A7
:100D0000E252FE4F998190838F5F809347028093D8
:100D1000460281E090E0ECCF61E0CE0101960E94B6
:100D2000A605F7CFCF92DF92EF92FF920F931F931A
:100D3000CF93DF93D091460281E0D13208F09CC07E
:100D4000C09148020E94CE026B017C01809170022A
:100D500081116CC082E08093700281E080936F0209
:100D60008FEF80936E0210926D02D0936C02AEED05
:100D7000B1E0EAE4F2E080E0D8138DC010926B029B
:100D800080916B02CC0FC82BC0936B0280916A02DA
:100D9000813009F084C010926A020E94CE026B0179
:100DA0007C0180916B028093BB00809172029091D4
:100DB0007302A0917402B0917502892B8A2B8B2B40
:100DC000A1F00E94CE020091720210917302209154
:100DD0007402309175026C197D098E099F090617FE
:100DE00017072807390708F442C08091BC0083FD2B
:100DF000D8CF85EC8093BC000E94CE026B017C01B1
:100E000080917002823009F44CC080916E028F3F55
:100E100009F469C080916E02803209F466C0809145
:100E20006E02803309F463C084E026C080917202B0
:100E300090917302A0917402B0917502892B8A2B54
:100E40008B2B09F483CF0E94CE0200917202109185
:100E5000730220917402309175026C197D098E091C
:100E60009F09061717072807390708F06FCF8091E9
:100E700071020E94EB0585E0109247021092460233
:100E800010924902DF91CF911F910F91FF90EF9047
:100E9000DF90CF9008959D9191938F5F6DCF85EEF8
:100EA000A9CF8091720290917302A0917402B091C7
:100EB0007502892B8A2B8B2B09F4A2CF0E94CE02BC
:100EC00000917202109173022091740230917502A8
:100ED0006C197D098E099F0906171707280739071E
:100EE00008F08ECFC4CF80E0C7CF82E0C5CF83E0CB
:100EF000C3CF90E080E008956F3FA9F0E62FE29520
:100F0000EF7044E0E49F90011124DC01ED91FC912D
:100F1000E20FF31F6F7082819381B6E06B9F800DAB
:100F2000911D1124089590E080E00895CF93DF9300
:100F3000EC0188819981DC01ED91FC910190F081B7
:100F4000E02D09952A813B81820F931F9B838A8321
:100F5000DF91CF910895CF93DF93EC018881998140
:100F6000DC01ED91FC910280F381E02D09952A814D
:100F70003B81820F931F9B838A83DF91CF910895DA
:100F80008F929F92AF92BF92CF92DF92EF92FF9299
:100F90000F931F93CF93DF93CDB7DEB766970FB64E
:100FA000F894DEBF0FBECDBF6C018E01095E1F4FEE
:100FB00078018AE0882E912CA12CB12CCB01BA01AA
:100FC000A50194010E94031C942F852F605DF801F8
:100FD00062938F01A901692F782F41155105610591
:100FE000710561F7A7014E1B5F0BBF01C6010E948F
:100FF000AB0766960FB6F894DEBF0FBECDBFDF918C
:10100000CF911F910F91FF90EF90DF90CF90BF9005
:10101000AF909F908F900895BF92CF92DF92EF9202
:10102000FF920F931F93CF93DF93FC016901EA01B5
:10103000209709F47EC077FF06C084E08483518343
:10104000408381E077C08B011F7704301105F8F4ED
:10105000DA0190E0242F8A2F8C1B861730F48D91B3
:1010600031E0811130E0932BF6CF911110C082E076
:101070008483DF01842F821B861728F4EA0189917B
:10108000AE018D93F7CFE60FF11D1082DACFB62EA9
:101090007F01D6011396ED91FC9198012C0F3D1F15
:1010A0003097F9F083818017110671F4BE01CF01EA
:1010B00004966217730761F0DB015D91BD01DC01ED
:1010C0004D91CD015417A9F30190F081E02DE8CFA7
:1010D00082818F5F828385E0E7018C83F983E883D7
:1010E000B0CF0F3F110509F008F5B8016B5F7F4FD6
:1010F00060177107D8F0F60180819181DC01ED91D4
:10110000FC910190F081E02D0995FC01892B71F093
:10111000B38281E08283DF0114969E01200F311F8C
:10112000C217D30789F089918D93FACF81E0E60148
:101130008A8380E0DF91CF911F910F91FF90EF9014
:10114000DF90CF90BF900895DF01A00FB11F1496DC
:101150001C92D60113968D919C9114979183808354
:101160001496FC93EE931397B6CFDC0152969C91A4
:101170005297915084E0989F900111245096ED91E0
:10118000FC91E20FF31F228133812115310579F0A3
:1011900041818081481758F481E0840F818386E083
:1011A000489F200D311D11242115310521F460E0E7
:1011B00070E08FEF0895B901892F8295807F840FA9
:1011C0000895AF92BF92CF92DF92EF92FF920F936A
:1011D0001F93CF93DF93EC018B018C8180FF2CC098
:1011E000A881B981FB018381948130E020E00097E0
:1011F00019F1A817B90709F041C0F80140815181E0
:1012000012969C911297915012969C93129791115D
:1012100013C08D919C9111972115310561F1F90150
:1012200091838083FA0180819181FC012281338145
:10123000BD01CA01F90109958C81807631F12097B1
:1012400021F1F8805801F5E1AF0EB11C8FEFF816CF
:10125000D1F06F2DC5010E947C076C01FC01E58077
:10126000B8010E94E108F801818DF6018083F80140
:10127000F18EFE2CEBCF94838383D4CF9C01FC01B1
:1012800080819181B4CFF882F9821C82DF91CF9165
:101290001F910F91FF90EF90DF90CF90BF90AF9094
:1012A0000895FF920F931F93CF93DF9300E011E017
:1012B000C1E0D0E0F801F1908F01CE010E948C1BBB
:1012C000F81621F06F2DCE010E94941B2196C93192
:1012D000D10581F780E091E0DF91CF911F910F91CF
:1012E000FF900895FB0101900020E9F73197AF01CD
:1012F000461B570B0C94AB07CF92DF92EF92FF92F5
:101300000F931F93CF93DF938C016B017A0162E2FD
:101310000E949607E601EC0CFD1CEC16FD0699F008
:101320006991E1E5F1E0D480DD20C9F03296838156
:101330006813F9CF6CE5C8010E9496076D2DC801AE
:101340000E949607EACF62E2C801DF91CF911F9118
:101350000F91FF90EF90DF90CF900C949607611162
:10136000EECF64E671E0C8010E947209D6CFFC019D
:1013700030E020E06115710549F0DB010D9000209F
:10138000E9F79D0121503109261B370B71836083DA
:101390002283832F8F7793819078982B40FB97F946
:1013A000938308952F923F924F925F926F927F9214
:1013B0008F929F92AF92BF92CF92DF92EF92FF9265
:1013C0000F931F93CF93DF93CDB7DEB76B970FB615
:1013D000F894DEBF0FBECDBF7C018B01DC011496FB
:1013E0008C911497863009F4A3C2F8F4833009F481
:1013F00092C258F440E0B701823009F47BC26BE638
:1014000071E0C8010E94720981C2843009F46EC281
:101410008530A9F7ED91FC91438150E0BF016C5FED
:101420007F4FC8010E947C091CC28E3009F443C062
:10143000E0F48A3009F477C28C3009F7CD90DD9062
:10144000ED90FC90B701A601F7FE0BC06DE2C8015C
:101450000E94960744275527BA014C195D096E0969
:101460007F09C8010E94C007FCC1803209F415C27F
:10147000803429F66BE5C8010E949607D701FC90DD
:10148000BFEFFB1609F4E9C1F801848195816F2D46
:1014900045960E947C077C01B8010E94D209D701C1
:1014A0001596FC90BFEFFB1609F4D7C16CE2C8019A
:1014B0000E949607E5CFF70180809180A280B380DB
:1014C000A5019401C501B4010E94651A882331F079
:1014D0006BE671E0C8010E947209C3C120E030E0F0
:1014E000A901C501B4010E94651A882371F0A50104
:1014F0009401C501B4010E944F1C9B01AC01C501C0
:10150000B4010E94651A882319F320E030E0A90194
:10151000C501B4010E94651A87FF08C06DE2C801C9
:101520000E949607B7FAB094B7F8B09420E836E96D
:1015300048E15BE4C501B4010E945C1D87FD83C0E6
:1015400074E1C72ED12CE0E2EE2EF12C312C212CAF
:10155000F601E055FD4F6591759185919491A50136
:1015600094010E94651A18167CF0F601E856FD4FAA
:101570002591359145915491C501B4010E94CB1A32
:101580004B015C012E0C3F1CF594E794F4E0CF1A5C
:10159000D1082CEFC2162FEFD206D1F63FEF3F8BCA
:1015A00020E030E0A901C501B4010E945C1D1816BD
:1015B0000CF051C02CEA35EC47E257E3C501B40109
:1015C0000E94651A18160CF446C0AF89B4E0AB024D
:1015D000C0011124D12CC12CFC01E856FD4F2F0174
:1015E0009C0120553D4F39013F893F3F09F433C0ED
:1015F000F201EC0DFD1D659175918591949120E0AE
:1016000030E040E251E40E94CB1AA50194010E940F
:101610005C1D18167CF4F301EC0DFD1D2591359130
:1016200045915491C501B4010E94CB1A4B015C0154
:101630002E183F08F594E7948F8981508F8B94E0A2
:10164000C91AD108D1CF50E2E52EF12C85E08F8B5D
:10165000312C212CA5CFC501B4010E942D1D6B0199
:101660007C012B013C0180E492E4AFE0B0E0888F84
:10167000998FAA8FBB8F96E09F8BAAE04A165104E0
:1016800061047104E0F0688D798D8A8D9B8D2AE06C
:1016900030E040E050E00E94031C288F398F4A8FD1
:1016A0005B8FBF89B150BF8BC301B2012AE030E02C
:1016B00040E050E00E94031C29013A01DECFC7013F
:1016C000B6010E946A1A9B01AC01C501B4010E94D7
:1016D0004E1C4B015C01688D798D8A8D9B8D0E941B
:1016E0006A1A9B01AC01C501B4010E94CB1A2B01FF
:1016F0003C010E942D1D4B015C010E946A1A9B0156
:10170000AC01C301B2010E944E1C9B01AC010E94BE
:101710004F1C0E942D1D860E971EA81EB91E888D77
:10172000998DAA8DBB8D88169906AA06BB06C0F0B6
:101730009FEFC91AD90AE90AF90A2114310439F1CB
:10174000AAE0CA16D104E104F10408F1BFEF2B1A94
:101750003B0A812C912C5401C12CD12C7601C394CD
:101760002AE0422E512C612C712CC501B401A30139
:1017700092010E94031C672B682B692B61F4EF898F
:101780001E164CF449015A01E150EF8BEECF812C2B
:10179000912C5401E5CFB701A601C8010E94C007F2
:1017A000FF89FF2391F16E0121E1C20ED11CF88F58
:1017B00076019AE0492E512C612C712C388D3150D4
:1017C000388F3F3F69F0C501B401A30192010E9427
:1017D000031C605DD6016E936D0149015A01EECF85
:1017E000BF898B2F90E0BC0160957095F701E81BD5
:1017F000F90B31978EE2808344275527461B570B00
:101800006E0D7F1DC8010E94AB072114310449F100
:1018100065E6C8010E949607710137FE07C06DE2B8
:10182000C8010E949607F194E194F108FE017796B1
:101830009F018AE0C82ED12CC701B6010E94341C3A
:10184000805D82937B01672BB9F7A9014E1B5F0B6B
:10185000BF01C8010E94AB0704C06DE5C8010E942A
:101860009607F801828193816B960FB6F894DEBFDC
:101870000FBECDBFDF91CF911F910F91FF90EF90E1
:10188000DF90CF90BF90AF909F908F907F906F90A0
:101890005F904F903F902F9008956BE7C8010E9492
:1018A0009607D701FC90EE24E394BB24B394BFEFDA
:1018B000FB16D1F0F801848195816F2D45960E9429
:1018C0007C076C01B8010E94D209D6011596FC90E4
:1018D000BFEFFB1639F06AE3E11001C06CE2C8010A
:1018E0000E949607EB24E3CF6DE7B8CFF701608144
:1018F000718141E0CE0101960E94B7094B815C8164
:101900005F7769817A81C8010E947C09D8011296AB
:101910008D919C91A9CFED91FC91438150E0BF0145
:101920006C5F7F4F96CF4D915D916D917C9199CD7C
:101930008C9160E771E08111CDCD65E771E0CACD92
:10194000CF93DF9300D000D000D0CDB7DEB7DC015D
:10195000CB0121EA32E03A8329831C821B82BE83B9
:10196000AD83009771F0BE016F5F7F4F0E94D20977
:1019700026960FB6F894DEBF0FBECDBFDF91CF9194
:1019800008956BE671E0CE0101960E9472098B8189
:101990009C81EECFFC0180819181009711F00C9425
:1019A000021E0895CB010C94021E0F931F93CF9338
:1019B000DF938C01EB01FC01808191810097E1F0C4
:1019C0006881798161157105A9F0428153812C816B
:1019D0003D814217530770F00E945A1F8C819D81F0
:1019E000F801958384831D821C82DF91CF911F9122
:1019F0000F9108950E94021E88819981F8019183B8
:101A000080838A819B81938382838C819D8195834E
:101A10008483198218821B821A82E5CFFC0180819F
:101A20009181009711F00C94F01860E070E0CB0108
:101A30000895FC0124813581232B39F421E0FB0139
:101A40008081882349F020E007C0808191810E9435
:101A5000511F21E0892BB9F7822F08950F931F930F
:101A6000CF93DF93EC0188819981009759F02A8107
:101A70003B812617370730F081E0DF91CF911F912E
:101A80000F9108958B016F5F7F4F0E948B1E00970F
:101A900059F0998388831B830A832C813D81232BF2
:101AA00059F7FC011082E8CF80E0E7CFEF92FF9278
:101AB0000F931F93CF93DF93EC017B018A01BA014F
:101AC0000E942E0D28813981811114C02115310504
:101AD00019F0C9010E94021E198218821D821C82FF
:101AE0001B821A82CE01DF91CF911F910F91FF903F
:101AF000EF9008951D830C83B701C9010E945A1FFE
:101B0000F1CFFB0101900020E9F73197AF01461BAF
:101B1000570B0C94560DAF92BF92CF92DF92EF927B
:101B2000FF920F931F93CF93DF93EC016B015A0148
:101B300079012417350720F48B2D5901E42EF82E56
:101B4000198218821B821A821D821C8263E671E050
:101B5000CE010E94810DD60114960D911C91A01604
:101B6000B10628F5E016F10608F48701D601ED91DB
:101B7000FC911197E00FF11FF08010826D917C9124
:101B80006A0D7B1D61157105F1F0FB0101900020CC
:101B9000E9F73197AF01461B570BCE010E94560D56
:101BA000F60180819181080F191FD801FC92CE01A6
:101BB000DF91CF911F910F91FF90EF90DF90CF9029
:101BC000BF90AF90089588819981009711F00E948D
:101BD000021E198218821D821C821B821A82E0CF8B
:101BE000CB01BA010C948B1E85ED8093BC008091D3
:101BF000720290917302A0917402B09175020796DF
:101C0000A11DB11D23E0B695A795979587952A95B7
:101C1000D1F72091BC0024FD03C0109270020895FA
:101C2000409172025091730260917402709175023A
:101C3000452B462B472B69F30097A105B10541F0D1
:101C40002AE22A95F1F700C00197A109B109E1CF75
:101C5000809171020C94EB05BF92CF92DF92EF92CC
:101C6000FF920F931F93CF93DF93EC01198D1F3FCA
:101C700081F0612F45960E947C07FC018081898F4D
:101C8000309709F477C014828FEF8583BF01812FCD
:101C900076C06C0135E0C30ED11CE880F9808F89D5
:101CA000882341F0C6010E94B508E62FF72F182FB0
:101CB000309749F71F89988D191324C0103109F402
:101CC00059C0110F6D897E89D701ED91FC91B4E067
:101CD0001B9FA0011124C616D70609F044C001902D
:101CE000F081E02DBA01C7010995009709F442C0BF
:101CF00020E1F601DC0101900D922A95E1F79E8B1F
:101D00008D8B188F0D891E898F8921E0280F2F8BCD
:101D1000E4E08E9FC0011124080F191F90E1B92E35
:101D2000203111F48FE0B82EF6E0BF9EB0011124EF
:101D3000D701ED91FC910190F081E02DC70109954B
:101D4000F80193838283892B09F4B12CD801BC92CA
:101D500011961C92012B71F0C6010E94B508E62F66
:101D6000F72F182F8DCF0480F581E02DC70109953D
:101D7000009729F681E08A8360E070E08FEFDF91C1
:101D8000CF911F910F91FF90EF90DF90CF90BF9078
:101D900008952F923F924F925F926F927F928F920F
:101DA0009F92AF92BF92CF92DF92EF92FF920F93EA
:101DB0001F93CF93DF9300D000D0CDB7DEB7FC01E7
:101DC0007A0141155105D1F4F12CE12CC7010F9096
:101DD0000F900F900F90DF91CF911F910F91FF9077
:101DE000EF90DF90CF90BF90AF909F908F907F90BB
:101DF0006F905F904F903F902F9008958481811154
:101E000078C080E284833097F9F28FEF80838183FA
:101E100069013B012A018F01362E272C590185E1EA
:101E2000A80EB11C6081C5010E947C07FC019924A9
:101E30009A94892B09F0958088248394309779F1BE
:101E4000882009F47DC08481843009F459C085302C
:101E500009F464C0823009F069C040E0BF01CE01DE
:101E600001960E94B709A981BA818B814C81942F78
:101E70009F77432D522D5F774817590709F060C0AF
:101E8000F7018E0D9F1D8E179F0709F054C0692D15
:101E9000C5010E947C077C01892B09F097CFC60100
:101EA0000E942C0E282E4B01672B09F48DCFC60102
:101EB0000E942C0E382E962FE92EF72EE114F104F5
:101EC00009F482CF9601A201B301C4010E940C085B
:101ED000882309F479CFF4013582F80161816F3FDD
:101EE000D9F1C5010E947C07FC012582F8013182ED
:101EF0006DCF803209F068CF309709F089CF64CF79
:101F00006081718141E0CE0101960E94B7094C8148
:101F100099818A81A92FB82F8B81A9CF0190F08157
:101F2000E02DDF011496838190E0A3CF90E080E064
:101F3000B0E0A0E09ECF31912D91321709F4A3CFEC
:101F400081E08826692DC5010E947C07FC01892B50
:101F500009F474CF958072CF2082C9CFCF92DF92DF
:101F6000EF92FF920F931F93CF93DF93FC010081B9
:101F70001181C8014A9619F17B0142815381648124
:101F8000758198010E94C90EEC010097C1F0F7011C
:101F9000C080D180E280F380B8010E94E1088EE029
:101FA0008C83C882D982EA82FB8281E0DF91CF9163
:101FB0001F910F91FF90EF90DF90CF90089580E0F8
:101FC000F5CFCB010C94661D1F920F920FB60F92A6
:101FD00011242F933F938F939F93AF93BF9380913F
:101FE000990290919A02A0919B02B0919C0230912B
:101FF000980223E0230F2D3758F50196A11DB11D3E
:10200000209398028093990290939A02A0939B0246
:10201000B0939C0280919D0290919E02A0919F029C
:10202000B091A0020196A11DB11D80939D029093D5
:102030009E02A0939F02B093A002BF91AF919F9187
:102040008F913F912F910F900FBE0F901F90189579
:1020500026E8230F0296A11DB11DD2CF1F920F9229
:102060000FB60F9211242F933F934F935F936F936B
:102070007F938F939F93AF93BF93EF93FF9381EAE7
:1020800092E00E94F204FF91EF91BF91AF919F9176
:102090008F917F916F915F914F913F912F910F9011
:1020A0000FBE0F901F9018951F920F920FB60F92B0
:1020B00011242F938F939F93EF93FF93E091B1029D
:1020C000F091B2028081E091B702F091B80282FDF6
:1020D0001BC090818091BA028F5F8F732091BB02E9
:1020E000821741F0E091BA02F0E0EF55FD4F958F75
:1020F0008093BA02FF91EF919F918F912F910F9052
:102100000FBE0F901F9018958081F4CF1F920F92F1
:102110000FB60F9211242F933F934F935F936F93BA
:102120007F938F939F93AF93BF93EF93FF93809190
:10213000B900887F803609F44AC0F0F5883209F486
:10214000A7C018F5803109F49BC0B8F4882309F4BE
:10215000F9C0883009F494C0FF91EF91BF91AF911D
:102160009F918F917F916F915F914F913F912F91AF
:102170000F900FBE0F901F901895883109F488C0FA
:10218000803251F780936E0214C0803409F49DC0F0
:1021900040F48033B9F38833F9F680936E0285EC0E
:1021A000B0C0803509F485C0883509F496C08834FC
:1021B00099F60E94F40DD0CF883909F48CC038F517
:1021C000883729F050F4883611F0803729F683E0FB
:1021D000809370021092410257C0883809F47BC086
:1021E000803919F0803809F0B7CF809141028032F0
:1021F00008F071C0E091410281E08E0F80934102AE
:102200008091BB00F0E0EF5DFD4F80833DC0803BDF
:1022100039F0E0F4803A09F479C0883A09F09CCFAB
:1022200084E0809370021092200210921F02E091CD
:102230004402F0914502099580911F0281110FC05F
:1022400081E080931F021092FF0109C0803C09F4D5
:10225000A6CF883C09F4A3CF883B09F07DCFE0915D
:10226000200281E08E0F80932002F0E0E150FE4FCB
:1022700080818093BB009091200280911F0229C031
:1022800080916B028093BB0085EC8093BC0064CF8F
:1022900090916D0280916C02981758F5E0916D0253
:1022A00081E08E0F80936D02F0E0E65BFD4F808150
:1022B000E9CFE0916D0281E08E0F80936D028091F5
:1022C000BB00F0E0E65BFD4F808390916D02809152
:1022D0006C029817C8F285E8D8CFE0916D0281E0D2
:1022E0008E0F80936D028091BB00F0E0E65BFD4FA6
:1022F000808380916F0281115CCF81E080936A02BC
:1023000084EA8093BC001092700226CF85EC809303
:10231000BC001092700280914102803230F4E09152
:102320004102F0E0EF5DFD4F10826091410270E0EC
:10233000E0914202F091430281E292E0099510920D
:1023400041020ACF10926E0234CFCF93DF93E1EABD
:10235000F2E01382128288EE93E0A0E0B0E0848382
:102360009583A683B7832EE231E03183208325EC69
:1023700030E03587248724EC30E03787268720EC4F
:1023800030E0318B208B21EC30E0338B228B22EC40
:1023900030E0358B248B26EC30E0378B268B118E8A
:1023A000128E138E148ECEE3D3E01B821A828C839E
:1023B0009D83AE83BF8380E491E099838883A8E7FF
:1023C000B3E082E015968C93159786E116968C9370
:1023D0001697EEEDF2E0E4911796EC931797EAEC7E
:1023E000F2E0E4911896EC93189740E85EE360E021
:1023F00070E01D964D935D936D937C935097EAE644
:10240000F3E085E481838AE999E9A9E9BFE382835E
:102410009383A483B5831782168283E28083D18756
:10242000C087EAE4F3E088E191E09183808312823F
:10243000148213828FE493E0968B858B178A84E055
:10244000808F8FEF818F168E878FDF91CF910895C8
:10245000CF93DF93CDB7DEB7E4970FB6F894DEBF26
:102460000FBECDBF789484B5826084BD84B5816091
:1024700084BD85B5826085BD85B5816085BD80914F
:102480006E00816080936E001092810080918100C7
:1024900082608093810080918100816080938100BF
:1024A000809180008160809380008091B100846081
:1024B0008093B1008091B00081608093B0008091E2
:1024C0007A00846080937A0080917A0082608093A1
:1024D0007A0080917A00816080937A0080917A00FE
:1024E000806880937A001092C100E091B102F0916F
:1024F000B20282E08083E091AD02F091AE021082E0
:10250000E091AF02F091B0028FEC80831092B9029B
:10251000E091B502F091B60286E08083E091B302CB
:10252000F091B402808180618083E091B302F091E8
:10253000B402808188608083E091B302F091B4029C
:10254000808180688083E091B302F091B402808141
:102550008F7D80831092770210927602109247024C
:10256000109246020E94CD0587E394E090934502C5
:102570008093440288E394E0909343028093420264
:1025800062E080917D030E949D020E942503605DB0
:10259000774081099109609381037093820380934E
:1025A00083039093840387E380938A0323E2209339
:1025B0006A03809172039091730301E000934902D2
:1025C00020934802DC01ED91FC910190F081E02D17
:1025D00060E1099580917203909173030E949206C5
:1025E000182F6AE070E080E090E00E94F302123061
:1025F00009F491C048F4112391F086E192E0113082
:1026000059F083E791E008C08FEA91E0133021F0A0
:1026100083E991E01430A9F70E94610582C080E14E
:1026200090E090937103809370030E942503609360
:10263000740370937503809376039093770380916E
:1026400072039091730320916A03009349022093CF
:102650004802109247021092460262E470E00E9423
:102660009F0580917203909173030E949206182F28
:10267000809172039091730320916A030093490241
:1026800020934802109247021092460265E670E0DD
:102690000E949F0580917203909173030E9492069D
:1026A000182B809172039091730320916A03009319
:1026B000490220934802109247021092460260910C
:1026C0007003709171030E949F0580917203909135
:1026D00073030E949206182B6AE070E080E090E09D
:1026E0000E94F302123009F470C050F41123B1F0CB
:1026F00086E491E0113009F48FCF83EA90E08CCF2B
:102700008FED90E0133009F487CF83EC90E0143024
:1027100009F482CFF2CF81EE91E07ECF85E4809301
:102720006B0390E080E00E948C1B8B3709F050C057
:1027300070E0E72E71E0F72E01E010E0C8010E9482
:102740008C1BF70181937F010F5F1F4F093111052A
:10275000A9F756E0A52E63ED862E61E0962E81EA5C
:1027600092E00E94D204181619060CF041C218A279
:102770001F8E1AA219A21CA21BA263E671E0CE0151
:102780004F960E94810D0E94920497FD29C08A30C5
:10279000910531F189831A820BA11CA10F5F1F4F94
:1027A000B801CE014F960E942E0D882361F32F8D24
:1027B00038A18BA19CA1BE016F5F7F4F820F931F39
:1027C0000E945A1F1CA30BA3DECF81E191E024CF0E
:1027D0006BE790E080E00E94941B0E945109B9CF02
:1027E0006BE771E0CE014F960E94190D182F8823D8
:1027F00009F45FC30E943103882341F080917E0376
:102800008C3009F462C038F48B30F1F060E070E095
:1028100080EC9FE741C085518230C0F710917A0368
:10282000612F70E0762F662766277F7780917B0384
:10283000682B90E080E00E946A1A2DEC3CEC4CEC96
:102840005DE30E94CB1A5DC060917A0370E090E076
:1028500080E00E946A1A6B017C0110917B0317FFD4
:102860000AC0AC019B0160E070E080E89FEB0E9431
:102870004E1C6B017C011F70612F70E090E080E0C6
:102880000E946C1A2DEC3CEC4CEC5DE30E94CB1AE0
:10289000A70196010E944F1C69A77AA78BA79CA746
:1028A0000E943103882351F080917E038B3030F0F9
:1028B0008D3058F18551823008F4ADC1C12CD12C36
:1028C00030ECE32E3FE7F32E3EC010917A03612FE8
:1028D00070E090E080E00E946A1A6B017C016091D8
:1028E0007B036F7070E090E080E00E946C1A2DEC2A
:1028F0003CEC4CEC5DE30E94CB1AA70196010E94D0
:102900004F1C17FFC9CF9058C7CF6091790370E073
:1029100090E080E00E946C1A2DEC3CEC4CEC5DE306
:102920000E94CB1A6B017C016091780370E090E00B
:1029300080E00E946C1A9B01AC01C701B6010E94A5
:102940004F1C6B017C01CDA2DEA2EFA2F8A649A428
:102950005AA46BA47CA4A3019201C301B2010E94FA
:10296000611D81111AC0209104013091050140912F
:10297000060150910701C301B2010E94CB1A2091B8
:1029800000013091010140910201509103010E9428
:102990004F1C69A77AA78BA79CA7A7019601C7011F
:1029A000B6010E94611D81111AC020910C01309165
:1029B0000D0140910E0150910F01C701B6010E9417
:1029C000CB1A209108013091090140910A015091E0
:1029D0000B010E944F1C6DA37EA38FA398A780912B
:1029E000700390917103892B09F027C183E492E071
:1029F0000E946105C12CD12CE12C20ECF22EC98E55
:102A0000DA8EEB8EFC8E20E030E0A901C701B60122
:102A10000E945C1D87FD10C0A70196016091140102
:102A20007091150180911601909117010E94CB1AA7
:102A3000698F7A8F8B8F9C8F0E940802C090100143
:102A4000D09011010D2C000CEE08FF089C01990F8D
:102A5000440B550B2C193D094E095F09A4E6B0E063
:102A60000E94C11B2091120130911301032E000C12
:102A7000440B550B2C193D094E095F090E94A21BFE
:102A8000CA01B9010E946C1A6B017C0120E030E0A0
:102A9000A9010E94651A87FD08C220E030E048ECD9
:102AA00052E4C701B6010E945C1D181634F4C12C13
:102AB000D12C88ECE82E82E4F82ECB8ADC8AED8AD1
:102AC000FE8A80914A0390914B030E94C0011092AC
:102AD0004C0380914A0390914B030E94A4011092F1
:102AE000680369A57AA58BA59CA59B01AC010E94F2
:102AF000611D811115C08AE493E09A83898388E877
:102B000091E09C838B838BE08D838E8180788068BD
:102B10008E83BE01675D7F4FCE0101960E94AE0F8E
:102B20006DA17EA18FA198A59B01AC010E94611DA2
:102B3000811115C08AE493E09A83898384E991E046
:102B40009C838B8388E08D838E81807880688E83E0
:102B5000BE016B5D7F4FCE0101960E94AE0F20E05B
:102B600030E0A901698D7A8D8B8D9C8D0E945C1D52
:102B700087FD15C08AE493E09A8389838DE991E00B
:102B80009C838B8385E08D838E81807880688E83A3
:102B9000BE01675E7F4FCE0101960E94AE0F8AE4B0
:102BA00093E09A83898383EA91E09C838B838DE011
:102BB0008D838E81807880688E83BE016D5E7F4FAD
:102BC000CE0101960E94AE0FE4E6F3E0FAABE9AB6A
:102BD0002AE433E03CAB2BAB69A97AA98BA99CA969
:102BE0000E94A00C0E946704CE014F960E94CA0C5E
:102BF00064E670E080E090E00E94F30280E090E004
:102C0000892B09F4ACCD0E94DE04882309F4A1CD00
:102C10000E9400009ECD6091780370917903762721
:102C20006727762790E080E00E946A1A2DEC3CEC42
:102C30004CEC5DE30E94CB1A84CE10916A030E9493
:102C4000CE026B017C0180917002811165C081E030
:102C50008093700280936F029FEF90936E021092A8
:102C60006D0280936C0280936B0280916B02110F56
:102C7000182B10936B0280916A02813009F0EFC02B
:102C800010926A020E94CE026B017C0180916B025D
:102C90008093BB008091720290917302A0917402A4
:102CA000B0917502892B8A2B8B2BA1F00E94CE024A
:102CB000009172021091730220917402309175029A
:102CC0006C197D098E099F09061717072807390710
:102CD00008F443C08091BC0083FDD8CF85EC80937D
:102CE000BC000E94CE026B017C0180917002813099
:102CF00009F4B7C080916D02823008F0D4C0809191
:102D00006D02EAE4F2E0A8E7B2E090E0981751F132
:102D100021912D939F5FFACF80917202909173025F
:102D2000A0917402B0917502892B8A2B8B2B09F428
:102D30008ACF0E94CE02209172023091730240919C
:102D40007402509175026C197D098E099F0926172E
:102D500037074807590708F076CF809171020E9423
:102D6000EB0580E01092770280937602C12CD12C83
:102D700090E8E92E9FEBF92E823009F580917203DD
:102D800090917303DC01ED91FC910284F385E02DB9
:102D90000995382E212C8091720390917303DC01E8
:102DA000ED91FC910284F385E02D09958229932908
:102DB000BC0190E080E00E946A1A6B017C010E94D5
:102DC0002503609374037093750380937603909347
:102DD000770320E030E040E85FEBC701B6010E94D6
:102DE000651A882309F40BCE60916B036534A9F052
:102DF00070E090E080E00E946A1A9B01AC0160E004
:102E000070E08AE892E40E94BB1C9B01AC01C70100
:102E1000B6010E94CB1A6B017C01809170039091E6
:102E200071038132910511F0419751F420E030E0B7
:102E300040E05FE3C701B6010E94CB1A6B017C0141
:102E400020916C0330916D0340916E0350916F039C
:102E5000C701B6010E94BB1C6B017C01D0CD85EE81
:102E60003ECF8091720290917302A0917402B09152
:102E70007502892B8A2B8B2B09F437CF0E94CE0247
:102E800000917202109173022091740230917502C8
:102E90006C197D098E099F0906171707280739073E
:102EA00008F023CF5ACF82E02CCFC12CD12C760151
:102EB00004CE1A8219821C821B821E821D8261EB43
:102EC00071E0CE0101960E94810D4D815E818BA142
:102ED0009CA18417950778F08F8D98A1009759F0E1
:102EE00069817A816115710531F00E94611F11E0DD
:102EF000892B09F010E0CE0101960E94CA0C112323
:102F000009F472CE1A8E198E1C8E1B8E1E8E1D8E8B
:102F10006F8D78A16115710531F04BA15CA1CE01D7
:102F200049960E94560D1A8219821C821B821E82AB
:102F30001D8263E671E0CE0101960E94810D188624
:102F40001F821A8619861C861B8663E671E0CE01F5
:102F500007960E94810D1E861D86188A1F861A8A72
:102F6000198A63E671E0CE010D960E94810D09E099
:102F700010E050E040E0F12CE12C2D8D3E8D021749
:102F80001307A8F583E0E816F1048CF5898D9A8D76
:102F9000009751F1800F911FDC018C91803221F557
:102FA0004F5F5F4F9801BE01675E7F4FCE01439632
:102FB0000E948B0D6701BFEFCB1ADB0AAE9CC001EC
:102FC000AF9C900D1124BE016D5E7F4FE1E0F0E0FB
:102FD000EC0FFD1F8E0F9F1F0E94D50CCE01439654
:102FE0000E94CA0CA80176010F5F1F4FC6CF42177F
:102FF0005307E8F44F5F5F4FBE01675E7F4FCE011E
:1030000043960E948B0DAE9CC001AF9C900D112485
:10301000BE016D5E7F4F21E030E02C0F3D1F820F1F
:10302000931F0E94D50CCE0143960E94CA0C6BEBF5
:1030300071E0CE0101960E94190D882309F47BC02E
:10304000CE0107960E940E0D6B017C01CE010D96FC
:103050000E940E0DA70196010E944E1C6093000174
:103060007093010180930201909303010E94510922
:1030700080914A0390914B030E94C00110924C032F
:1030800080914A0390914B030E94A401109268031F
:103090009E8A8D8A8AE08F8B888D80788068888F61
:1030A0004D895E896F89788D2AE433E084E693E068
:1030B0000E94C90E8C01ED80FE80E894F7F8D9805B
:1030C000CA808F2D8F773B2D3078B32EB82AE894A5
:1030D000B7F80115110571F06AE473E0C8010E94A8
:1030E000E1082AE433E04D2D5C2D6E2D7B2DC801C7
:1030F0000E940C0884E693E09EA78DA7AAE4B3E0A3
:10310000B8ABAFA76DA57EA58FA598A90E94A00C0E
:103110000E946704CE010D960E94CA0CCE0107964C
:103120000E94CA0CCE0101960E94CA0CCE0149969B
:103130000E94CA0C59CD60EC71E0CE0101960E944C
:10314000190D8823F9F065EC71E0CE0107960E9415
:10315000190D882339F00E94080290931101809381
:10316000100184CF69EC71E0CE0107960E94190D21
:10317000882309F47BCF0E94080290931301809367
:10318000120174CF6DEC71E0CE0101960E94190D11
:10319000882309F46BCFCE0107960E940E0D6B01B8
:1031A0007C01CE010D960E940E0DA70196010E9492
:1031B000BB1C6093140170931501809316019093CA
:1031C000170154CFCF93DF93CAE4D3E0888199816C
:1031D0000E94A40188819981DF91CF910C94C00154
:1031E000662777270C94F418B0E0A0E0EAEFF8E146
:1031F0000C94D21B5C017B016115710519F0DB0198
:103200008D939C9385010F5F1F4FF501D0818D2F0A
:1032100090E00E94441A6C01892BB9F5DD32B9F5B2
:103220000F5F1F4FD5011196DC91C1E05801F1E00D
:10323000AF1AB10843E050E060E770E0C5010E94BA
:103240004D1A892B69F5680182E0C80ED11C45E052
:1032500050E06BE670E0C6010E944D1A892B21F404
:10326000680197E0C90ED11CE114F10419F0D701EF
:10327000CD92DC9260E070E080E89FEFC111FFC06A
:1032800060E070E080E89FE7FAC05801BBCFDB3216
:1032900029F485010E5F1F4FF501D181C0E0C6CF33
:1032A00043E050E068E670E0C5010E944D1A892BAA
:1032B000E9F0F80110E000E020E030E0A9015F0152
:1032C000B0ED8B2E8D0E89E08815C8F19C2E689488
:1032D00091F88C2F8870C2FF16C0811102C00F5F59
:1032E0001F4F3196D501DC91C92DE9CFE114F104CE
:1032F00029F00E5F1F4FF7011183008360E070E03B
:1033000080EC9FE7BCC0882311F001501109A5E0B3
:10331000B0E00E94C11B9B01AC01220F331F441F70
:10332000551F280D311D411D511D283999E93907B7
:10333000490799E15907A8F2C6609C2ED2CFAEEF9B
:103340008A1206C0C3FD3CC09C2E689493F8C9CF76
:10335000DF7DD534A9F580818D3239F4C061DF017C
:103360001296818162E070E006C0DF018B32C1F30A
:10337000119661E070E080535D01A61AB70A8A30A9
:10338000F8F4E0E8CE16ECE0DE065CF4B601660F79
:10339000771F660F771FC60ED71ECC0CDD1CC80E1C
:1033A000D11C5D01FFEFAF1ABF0A8C9180538A30A8
:1033B000A8F1C4FF03C0D194C194D1080C0D1D1D08
:1033C000C1FF09C0E114F10431F081E0A81AB1088D
:1033D000D701AD92BC92CA01B9010E946A1AC370AA
:1033E000C33009F490584B015C0120E030E0A901A2
:1033F0000E94651A882309F440C0CFE9D0E017FF86
:1034000005C0119501951109C7E8D0E06E01B8E13A
:10341000CB1AD10880E2E82EF12C0FC0D501B1CF34
:10342000FE0125913591459154910E191F09C50151
:10343000B4010E94CB1A4B015C01D501C4010E15E9
:103440001F0574F72497F594E794CC16DD06A9F7C9
:103450008A2F880F8B2F881F8F3F49F020E030E0A4
:10346000A901C501B4010E94651A811106C082E25A
:1034700090E090938C0380938B03C501B401CDB78A
:10348000DEB7ECE00C94EE1B91110C94381B8032EB
:1034900019F089508550C8F70895FB01DC014150AF
:1034A000504088F08D9181341CF08B350CF4805E97
:1034B000659161341CF06B350CF4605E861B611104
:1034C00071F3990B0895881BFCCF0E94A71A08F48A
:1034D00081E00895E89409C097FB3EF490958095AB
:1034E000709561957F4F8F4F9F4F9923A9F0F92FCA
:1034F00096E9BB279395F695879577956795B79548
:10350000F111F8CFFAF4BB0F11F460FF1BC06F5F2D
:103510007F4F8F4F9F4F16C0882311F096E911C03F
:10352000772321F09EE8872F762F05C0662371F060
:1035300096E8862F70E060E02AF09A95660F771F74
:10354000881FDAF7880F9695879597F90895990F50
:103550000008550FAA0BE0E8FEEF16161706E8075D
:10356000F907C0F012161306E407F50798F0621B7E
:10357000730B840B950B39F40A2661F0232B242B53
:10358000252B21F408950A2609F4A140A6958FEF72
:10359000811D811D08950E94DE1A0C94521B0E9409
:1035A000441B38F00E944B1B20F0952311F00C9423
:1035B0003B1B0C94411B11240C94861B0E94631B23
:1035C00070F3959FC1F3950F50E0551F629FF00176
:1035D000729FBB27F00DB11D639FAA27F00DB11D8F
:1035E000AA1F649F6627B00DA11D661F829F222718
:1035F000B00DA11D621F739FB00DA11D621F839F9F
:10360000A00D611D221F749F3327A00D611D231F74
:10361000849F600D211D822F762F6A2F11249F57C2
:1036200050409AF0F1F088234AF0EE0FFF1FBB1FC5
:10363000661F771F881F91505040A9F79E3F510584
:1036400080F00C943B1B0C94861B5F3FE4F3983E88
:10365000D4F3869577956795B795F795E7959F5F2E
:10366000C1F7FE2B880F911D9695879597F90895C0
:1036700099278827089597F99F6780E870E060E0B0
:1036800008959FEF80EC089500240A9416161706FB
:1036900018060906089500240A9412161306140643
:1036A00005060895092E0394000C11F4882352F0A6
:1036B000BB0F40F4BF2B11F460FF04C06F5F7F4F5E
:1036C0008F4F9F4F089557FD9058440F551F59F045
:1036D0005F3F71F04795880F97FB991F61F09F3FFF
:1036E00079F087950895121613061406551FF2CF28
:1036F0004695F1DF08C0161617061806991FF1CF78
:1037000086957105610508940895E894BB2766279E
:103710007727CB0197F90895F999FECF92BD81BD26
:10372000F89A992780B50895262FF999FECF1FBAE8
:1037300092BD81BD20BD0FB6F894FA9AF99A0FBEDA
:1037400001960895052E97FB1EF400940E94B91B64
:1037500057FD07D00E94031C07FC03D04EF40C94C5
:10376000B91B50954095309521953F4F4F4F5F4F76
:10377000089590958095709561957F4F8F4F9F4FDD
:1037800008950E94251CA59F900DB49F900DA49FA5
:10379000800D911D112408952F923F924F925F92B8
:1037A0006F927F928F929F92AF92BF92CF92DF9251
:1037B000EF92FF920F931F93CF93DF93CDB7DEB7B6
:1037C000CA1BDB0B0FB6F894DEBF0FBECDBF09944A
:1037D0002A88398848885F846E847D848C849B84A1
:1037E000AA84B984C884DF80EE80FD800C811B81AF
:1037F000AA81B981CE0FD11D0FB6F894DEBF0FBEDE
:10380000CDBFED010895A1E21A2EAA1BBB1BFD013D
:103810000DC0AA1FBB1FEE1FFF1FA217B307E407AF
:10382000F50720F0A21BB30BE40BF50B661F771F07
:10383000881F991F1A9469F76095709580959095E7
:103840009B01AC01BD01CF010895A29FB001B39FC0
:10385000C001A39F700D811D1124911DB29F700D99
:10386000811D1124911D0895AA1BBB1B51E107C0A6
:10387000AA1FBB1FA617B70710F0A61BB70B881F00
:10388000991F5A95A9F780959095BC01CD0108958F
:10389000EE0FFF1F0590F491E02D09945058BB27BF
:1038A000AA270E94661C0C94521B0E94441B38F0ED
:1038B0000E944B1B20F039F49F3F19F426F40C941E
:1038C000411B0EF4E095E7FB0C943B1BE92F0E9493
:1038D000631B58F3BA17620773078407950720F034
:1038E00079F4A6F50C94851B0EF4E0950B2EBA2FF7
:1038F000A02D0B01B90190010C01CA01A0011124F6
:10390000FF27591B99F0593F50F4503E68F11A16A1
:10391000F040A22F232F342F4427585FF3CF469532
:1039200037952795A795F0405395C9F77EF41F1654
:10393000BA0B620B730B840BBAF09150A1F0FF0F1E
:10394000BB1F661F771F881FC2F70EC0BA0F621F0A
:10395000731F841F48F4879577956795B795F795FA
:103960009E3F08F0B0CF9395880F08F09927EE0F8F
:103970009795879508950E94CF1C0C94521B0E9426
:103980004B1B58F00E94441B40F029F45F3F29F084
:103990000C943B1B51110C94861B0C94411B0E94F0
:1039A000631B68F39923B1F3552391F3951B550BD2
:1039B000BB27AA2762177307840738F09F5F5F4F02
:1039C000220F331F441FAA1FA9F335D00E2E3AF041
:1039D000E0E832D091505040E695001CCAF72BD059
:1039E000FE2F29D0660F771F881FBB1F26173707AA
:1039F0004807AB07B0E809F0BB0B802DBF01FF27DC
:103A000093585F4F3AF09E3F510578F00C943B1B62
:103A10000C94861B5F3FE4F3983ED4F3869577952C
:103A20006795B795F7959F5FC9F7880F911D969594
:103A3000879597F90895E1E0660F771F881FBB1FF0
:103A4000621773078407BA0720F0621B730B840B9D
:103A5000BA0BEE1F88F7E09508950E946B1B88F063
:103A60009F5798F0B92F9927B751B0F0E1F0660F42
:103A7000771F881F991F1AF0BA95C9F714C0B13083
:103A800091F00E94851BB1E008950C94851B672F6F
:103A9000782F8827B85F39F0B93FCCF386957795B2
:103AA0006795B395D9F73EF490958095709561959B
:103AB0007F4F8F4F9F4F08950E94A71A08F48FEFF2
:103AC00008950E94A71A880B990B08950F931F93CE
:103AD000CF93DF938230910510F482E090E0E09183
:103AE0008F03F091900330E020E0B0E0A0E0309749
:103AF00099F42115310509F44AC0281B390B2430EB
:103B00003105D8F58A819B816115710589F1FB0129
:103B100093838283FE0111C0408151810281138110
:103B200048175907E0F04817590799F4109761F0C2
:103B300012960C93129713961C933296CF01DF9135
:103B4000CF911F910F91089500938F0310939003CD
:103B5000F4CF2115310551F04217530738F0A90170
:103B6000DB019A01BD01DF01F801C1CFEF01F9CFFF
:103B70009093900380938F03CDCFFE01E20FF31F4C
:103B8000819391932250310939832883D7CF209193
:103B90008D0330918E03232B41F420911C01309131
:103BA0001D0130938E0320938D0320911A013091D3
:103BB0001B012115310541F42DB73EB740911E017F
:103BC00050911F01241B350BE0918D03F0918E0362
:103BD000E217F307A0F42E1B3F0B2817390778F0E4
:103BE000AC014E5F5F4F2417350748F04E0F5F1F43
:103BF00050938E0340938D03819391939FCFF0E078
:103C0000E0E09CCFCF93DF930097E9F0FC0132977F
:103C100013821282A0918F03B0919003ED0130E0E6
:103C200020E01097A1F420813181820F931F209111
:103C30008D0330918E032817390709F061C0F09386
:103C40008E03E0938D03DF91CF910895EA01CE17A3
:103C5000DF07E8F54A815B819E0141155105B1F707
:103C6000E901FB83EA8349915991C40FD51FEC17F1
:103C7000FD0761F4808191810296840F951FE9010F
:103C800099838883828193819B838A83F0E0E0E03B
:103C900012968D919C9113970097B9F52D913C91B7
:103CA0001197CD010296820F931F20918D033091C1
:103CB0008E032817390739F6309751F51092900383
:103CC00010928F03B0938E03A0938D03BCCFD38348
:103CD000C28340815181840F951FC817D90761F4B1
:103CE0004E5F5F4F88819981480F591F51834083F0
:103CF0008A819B81938382832115310509F0B0CF9E
:103D0000F0939003E0938F039ECFFD01DC01C0CFC1
:103D100013821282D7CFB0E0A0E0E1E9FEE10C947B
:103D2000CE1B8C01009751F4CB010E94661D8C01C3
:103D3000C801CDB7DEB7E0E10C94EA1BFC01E60F49
:103D4000F71F9C0122503109E217F30708F49DC0C8
:103D5000D901CD91DC911197C617D70798F0C530DE
:103D6000D10530F3CE0104978617970708F3C61BD9
:103D7000D70B2297C193D1936D937C93CF010E946F
:103D8000021ED6CF5B01AC1ABD0A4C018C0E9D1EE3
:103D9000A0918F03B0919003512C412CF12CE12C78
:103DA000109731F580918D0390918E0388159905B8
:103DB00009F05CC04616570608F058C080911A01F9
:103DC00090911B01009741F48DB79EB740911E0161
:103DD00050911F01841B950BE817F90708F055C097
:103DE000F0938E03E0938D03F90171836083A0CF7C
:103DF0008D919C91119712966C90129713967C90CE
:103E00001397A815B90559F56C0142E0C40ED11CF1
:103E1000CA14DB0420F1AC014A195B09DA011296DD
:103E2000159780F06282738251834083D9016D932C
:103E30007C93E114F10471F0D7011396FC93EE9397
:103E4000129776CF22968C0F9D1FF9019183808364
:103E5000F301EFCFF0939003E0938F0369CF4816FF
:103E6000590608F42C017D01D3019ACFCB010E94A1
:103E7000661D7C01009749F0AE01B8010E94481F01
:103E8000C8010E94021E870153CF10E000E050CF0E
:103E9000FB01DC0102C001900D9241505040D8F767
:103EA0000895FB01DC018D91019080190110D9F377
:103EB000990B0895FB01DC0101900D920020E1F7C0
:103EC0000895FB01DC014150504030F08D9101908C
:103ED000801919F40020B9F7881B990B089511E097
:103EE000C9E7D1E004C0FE010E94481C2196CA37F0
:083EF000D107C9F7F894FFCFD8
:103EF800000000000000803F000000000000803F3C
:103F08002602FA000000803F24010000910380008F
:103F180000000000E10FD20CF00D000000001405B5
:103F28003A046F047F05D2047E04C4040000000034
:103F38006306360679070C062F061C060D060D0AC1
:103F4800002F2F272722225C5C6208660C6E0A72FB
:103F58000D7409005C7530303030006E756C6C0083
:103F6800747275650066616C736500524541445F03
:103F780053454E534F52530074656D7065726174AA
:103F88007572650068756D6964697479006C696734
:103F9800687400736F696C5F6D6F697374757265AF
:103FA8000043414C4942524154450054454D50004C
:103FB800534F494C0044525900574554004C494707
:0E3FC80048540063616C696272617465640044
:00000001FF
